{
  "abi": [
    {
      "inputs": [
        {
          "internalType": "address",
          "name": "_wormhole",
          "type": "address"
        }
      ],
      "stateMutability": "nonpayable",
      "type": "constructor"
    },
    {
      "inputs": [],
      "name": "AddressIsZero",
      "type": "error"
    },
    {
      "inputs": [],
      "name": "CallerMustBeOwner",
      "type": "error"
    },
    {
      "inputs": [],
      "name": "CallerMustBePendingOwner",
      "type": "error"
    },
    {
      "inputs": [
        {
          "internalType": "address",
          "name": "msgSender",
          "type": "address"
        }
      ],
      "name": "CallerNotApproved",
      "type": "error"
    },
    {
      "inputs": [],
      "name": "ChainIdIsZero",
      "type": "error"
    },
    {
      "inputs": [
        {
          "internalType": "string",
          "name": "reason",
          "type": "string"
        }
      ],
      "name": "FailedToInitializeImplementation",
      "type": "error"
    },
    {
      "inputs": [],
      "name": "GasPriceIsZero",
      "type": "error"
    },
    {
      "inputs": [],
      "name": "NativeCurrencyPriceIsZero",
      "type": "error"
    },
    {
      "inputs": [
        {
          "internalType": "uint8",
          "name": "version",
          "type": "uint8"
        },
        {
          "internalType": "uint8",
          "name": "expectedVersion",
          "type": "uint8"
        }
      ],
      "name": "UnexpectedExecutionParamsVersion",
      "type": "error"
    },
    {
      "inputs": [
        {
          "internalType": "uint8",
          "name": "version",
          "type": "uint8"
        }
      ],
      "name": "UnsupportedExecutionParamsVersion",
      "type": "error"
    },
    {
      "inputs": [],
      "name": "WrongChainId",
      "type": "error"
    },
    {
      "anonymous": false,
      "inputs": [
        {
          "indexed": false,
          "internalType": "address",
          "name": "previousAdmin",
          "type": "address"
        },
        {
          "indexed": false,
          "internalType": "address",
          "name": "newAdmin",
          "type": "address"
        }
      ],
      "name": "AdminChanged",
      "type": "event"
    },
    {
      "anonymous": false,
      "inputs": [
        {
          "indexed": false,
          "internalType": "uint16",
          "name": "targetChain",
          "type": "uint16"
        },
        {
          "indexed": false,
          "internalType": "uint16",
          "name": "buffer",
          "type": "uint16"
        },
        {
          "indexed": false,
          "internalType": "uint16",
          "name": "bufferDenominator",
          "type": "uint16"
        }
      ],
      "name": "AssetConversionBufferUpdated",
      "type": "event"
    },
    {
      "anonymous": false,
      "inputs": [
        {
          "indexed": true,
          "internalType": "address",
          "name": "beacon",
          "type": "address"
        }
      ],
      "name": "BeaconUpgraded",
      "type": "event"
    },
    {
      "anonymous": false,
      "inputs": [
        {
          "indexed": false,
          "internalType": "uint16",
          "name": "targetChain",
          "type": "uint16"
        },
        {
          "indexed": false,
          "internalType": "bool",
          "name": "isSupported",
          "type": "bool"
        }
      ],
      "name": "ChainSupportUpdated",
      "type": "event"
    },
    {
      "anonymous": false,
      "inputs": [
        {
          "indexed": true,
          "internalType": "address",
          "name": "oldContract",
          "type": "address"
        },
        {
          "indexed": true,
          "internalType": "address",
          "name": "newContract",
          "type": "address"
        }
      ],
      "name": "ContractUpgraded",
      "type": "event"
    },
    {
      "anonymous": false,
      "inputs": [
        {
          "indexed": true,
          "internalType": "Gas",
          "name": "oldGasOverhead",
          "type": "uint256"
        },
        {
          "indexed": true,
          "internalType": "Gas",
          "name": "newGasOverhead",
          "type": "uint256"
        }
      ],
      "name": "DeliverGasOverheadUpdated",
      "type": "event"
    },
    {
      "anonymous": false,
      "inputs": [
        {
          "indexed": true,
          "internalType": "address",
          "name": "oldOwner",
          "type": "address"
        },
        {
          "indexed": true,
          "internalType": "address",
          "name": "newOwner",
          "type": "address"
        }
      ],
      "name": "OwnershipTransfered",
      "type": "event"
    },
    {
      "anonymous": false,
      "inputs": [
        {
          "indexed": true,
          "internalType": "address",
          "name": "newAddress",
          "type": "address"
        }
      ],
      "name": "RewardAddressUpdated",
      "type": "event"
    },
    {
      "anonymous": false,
      "inputs": [
        {
          "indexed": true,
          "internalType": "uint16",
          "name": "targetChain",
          "type": "uint16"
        },
        {
          "indexed": true,
          "internalType": "bytes32",
          "name": "newAddress",
          "type": "bytes32"
        }
      ],
      "name": "TargetChainAddressUpdated",
      "type": "event"
    },
    {
      "anonymous": false,
      "inputs": [
        {
          "indexed": true,
          "internalType": "address",
          "name": "implementation",
          "type": "address"
        }
      ],
      "name": "Upgraded",
      "type": "event"
    },
    {
      "anonymous": false,
      "inputs": [
        {
          "indexed": false,
          "internalType": "address",
          "name": "coreRelayer",
          "type": "address"
        }
      ],
      "name": "WormholeRelayerUpdated",
      "type": "event"
    },
    {
      "inputs": [
        {
          "internalType": "uint16",
          "name": "targetChain",
          "type": "uint16"
        }
      ],
      "name": "assetConversionBuffer",
      "outputs": [
        {
          "internalType": "uint16",
          "name": "tolerance",
          "type": "uint16"
        },
        {
          "internalType": "uint16",
          "name": "toleranceDenominator",
          "type": "uint16"
        }
      ],
      "stateMutability": "view",
      "type": "function"
    },
    {
      "inputs": [],
      "name": "chainId",
      "outputs": [
        {
          "internalType": "uint16",
          "name": "",
          "type": "uint16"
        }
      ],
      "stateMutability": "view",
      "type": "function"
    },
    {
      "inputs": [],
      "name": "confirmOwnershipTransferRequest",
      "outputs": [],
      "stateMutability": "nonpayable",
      "type": "function"
    },
    {
      "inputs": [],
      "name": "coreRelayer",
      "outputs": [
        {
          "internalType": "address",
          "name": "",
          "type": "address"
        }
      ],
      "stateMutability": "view",
      "type": "function"
    },
    {
      "inputs": [
        {
          "internalType": "uint16",
          "name": "targetChain",
          "type": "uint16"
        }
      ],
      "name": "deliverGasOverhead",
      "outputs": [
        {
          "internalType": "Gas",
          "name": "",
          "type": "uint256"
        }
      ],
      "stateMutability": "view",
      "type": "function"
    },
    {
      "inputs": [
        {
          "internalType": "uint16",
          "name": "targetChain",
          "type": "uint16"
        }
      ],
      "name": "gasPrice",
      "outputs": [
        {
          "internalType": "GasPrice",
          "name": "",
          "type": "uint256"
        }
      ],
      "stateMutability": "view",
      "type": "function"
    },
    {
      "inputs": [],
      "name": "getRewardAddress",
      "outputs": [
        {
          "internalType": "address payable",
          "name": "",
          "type": "address"
        }
      ],
      "stateMutability": "view",
      "type": "function"
    },
    {
      "inputs": [
        {
          "internalType": "uint16",
          "name": "targetChain",
          "type": "uint16"
        }
      ],
      "name": "getTargetChainAddress",
      "outputs": [
        {
          "internalType": "bytes32",
          "name": "deliveryProviderAddress",
          "type": "bytes32"
        }
      ],
      "stateMutability": "view",
      "type": "function"
    },
    {
      "inputs": [
        {
          "internalType": "uint16",
          "name": "targetChain",
          "type": "uint16"
        }
      ],
      "name": "isChainSupported",
      "outputs": [
        {
          "internalType": "bool",
          "name": "supported",
          "type": "bool"
        }
      ],
      "stateMutability": "view",
      "type": "function"
    },
    {
      "inputs": [
        {
          "internalType": "address",
          "name": "impl",
          "type": "address"
        }
      ],
      "name": "isInitialized",
      "outputs": [
        {
          "internalType": "bool",
          "name": "",
          "type": "bool"
        }
      ],
      "stateMutability": "view",
      "type": "function"
    },
    {
      "inputs": [
        {
          "internalType": "uint16",
          "name": "targetChain",
          "type": "uint16"
        }
      ],
      "name": "maximumBudget",
      "outputs": [
        {
          "internalType": "Wei",
          "name": "",
          "type": "uint256"
        }
      ],
      "stateMutability": "view",
      "type": "function"
    },
    {
      "inputs": [
        {
          "internalType": "uint16",
          "name": "targetChain",
          "type": "uint16"
        }
      ],
      "name": "nativeCurrencyPrice",
      "outputs": [
        {
          "internalType": "WeiPrice",
          "name": "",
          "type": "uint256"
        }
      ],
      "stateMutability": "view",
      "type": "function"
    },
    {
      "inputs": [],
      "name": "owner",
      "outputs": [
        {
          "internalType": "address",
          "name": "",
          "type": "address"
        }
      ],
      "stateMutability": "view",
      "type": "function"
    },
    {
      "inputs": [],
      "name": "pendingOwner",
      "outputs": [
        {
          "internalType": "address",
          "name": "",
          "type": "address"
        }
      ],
      "stateMutability": "view",
      "type": "function"
    },
    {
      "inputs": [
        {
          "internalType": "uint16",
          "name": "targetChain",
          "type": "uint16"
        },
        {
          "internalType": "LocalNative",
          "name": "currentChainAmount",
          "type": "uint256"
        }
      ],
      "name": "quoteAssetConversion",
      "outputs": [
        {
          "internalType": "TargetNative",
          "name": "targetChainAmount",
          "type": "uint256"
        }
      ],
      "stateMutability": "view",
      "type": "function"
    },
    {
      "inputs": [
        {
          "internalType": "uint16",
          "name": "targetChain",
          "type": "uint16"
        }
      ],
      "name": "quoteDeliveryOverhead",
      "outputs": [
        {
          "internalType": "Wei",
          "name": "nativePriceQuote",
          "type": "uint256"
        }
      ],
      "stateMutability": "view",
      "type": "function"
    },
    {
      "inputs": [
        {
          "internalType": "uint16",
          "name": "targetChain",
          "type": "uint16"
        },
        {
          "internalType": "TargetNative",
          "name": "receiverValue",
          "type": "uint256"
        },
        {
          "internalType": "bytes",
          "name": "encodedExecutionParams",
          "type": "bytes"
        }
      ],
      "name": "quoteDeliveryPrice",
      "outputs": [
        {
          "internalType": "LocalNative",
          "name": "nativePriceQuote",
          "type": "uint256"
        },
        {
          "internalType": "bytes",
          "name": "encodedExecutionInfo",
          "type": "bytes"
        }
      ],
      "stateMutability": "view",
      "type": "function"
    },
    {
      "inputs": [
        {
          "internalType": "uint16",
          "name": "targetChain",
          "type": "uint16"
        },
        {
          "internalType": "Gas",
          "name": "gasLimit",
          "type": "uint256"
        },
        {
          "internalType": "TargetNative",
          "name": "receiverValue",
          "type": "uint256"
        }
      ],
      "name": "quoteEvmDeliveryPrice",
      "outputs": [
        {
          "internalType": "LocalNative",
          "name": "nativePriceQuote",
          "type": "uint256"
        },
        {
          "internalType": "GasPrice",
          "name": "targetChainRefundPerUnitGasUnused",
          "type": "uint256"
        }
      ],
      "stateMutability": "view",
      "type": "function"
    },
    {
      "inputs": [
        {
          "internalType": "uint16",
          "name": "targetChain",
          "type": "uint16"
        }
      ],
      "name": "quoteGasPrice",
      "outputs": [
        {
          "internalType": "GasPrice",
          "name": "",
          "type": "uint256"
        }
      ],
      "stateMutability": "view",
      "type": "function"
    },
    {
      "inputs": [],
      "name": "rewardAddress",
      "outputs": [
        {
          "internalType": "address payable",
          "name": "",
          "type": "address"
        }
      ],
      "stateMutability": "view",
      "type": "function"
    },
    {
      "inputs": [
        {
          "internalType": "uint16",
          "name": "thisRelayerChainId",
          "type": "uint16"
        },
        {
          "internalType": "address",
          "name": "newOwner",
          "type": "address"
        }
      ],
      "name": "submitOwnershipTransferRequest",
      "outputs": [],
      "stateMutability": "nonpayable",
      "type": "function"
    },
    {
      "inputs": [
        {
          "internalType": "uint16",
          "name": "targetChain",
          "type": "uint16"
        }
      ],
      "name": "targetChainAddress",
      "outputs": [
        {
          "internalType": "bytes32",
          "name": "",
          "type": "bytes32"
        }
      ],
      "stateMutability": "view",
      "type": "function"
    },
    {
      "inputs": [
        {
          "internalType": "uint16",
          "name": "targetChain",
          "type": "uint16"
        },
        {
          "internalType": "uint16",
          "name": "buffer",
          "type": "uint16"
        },
        {
          "internalType": "uint16",
          "name": "bufferDenominator",
          "type": "uint16"
        }
      ],
      "name": "updateAssetConversionBuffer",
      "outputs": [],
      "stateMutability": "nonpayable",
      "type": "function"
    },
    {
      "inputs": [
        {
          "components": [
            {
              "internalType": "uint16",
              "name": "chainId",
              "type": "uint16"
            },
            {
              "internalType": "uint16",
              "name": "buffer",
              "type": "uint16"
            },
            {
              "internalType": "uint16",
              "name": "bufferDenominator",
              "type": "uint16"
            }
          ],
          "internalType": "struct DeliveryProviderStructs.AssetConversionBufferUpdate[]",
          "name": "updates",
          "type": "tuple[]"
        }
      ],
      "name": "updateAssetConversionBuffers",
      "outputs": [],
      "stateMutability": "nonpayable",
      "type": "function"
    },
    {
      "inputs": [
        {
          "components": [
            {
              "internalType": "bool",
              "name": "updateAssetConversionBuffer",
              "type": "bool"
            },
            {
              "internalType": "bool",
              "name": "updateDeliverGasOverhead",
              "type": "bool"
            },
            {
              "internalType": "bool",
              "name": "updatePrice",
              "type": "bool"
            },
            {
              "internalType": "bool",
              "name": "updateTargetChainAddress",
              "type": "bool"
            },
            {
              "internalType": "bool",
              "name": "updateMaximumBudget",
              "type": "bool"
            },
            {
              "internalType": "bool",
              "name": "updateSupportedChain",
              "type": "bool"
            },
            {
              "internalType": "bool",
              "name": "isSupported",
              "type": "bool"
            },
            {
              "internalType": "uint16",
              "name": "chainId",
              "type": "uint16"
            },
            {
              "internalType": "uint16",
              "name": "buffer",
              "type": "uint16"
            },
            {
              "internalType": "uint16",
              "name": "bufferDenominator",
              "type": "uint16"
            },
            {
              "internalType": "Gas",
              "name": "newGasOverhead",
              "type": "uint256"
            },
            {
              "internalType": "GasPrice",
              "name": "gasPrice",
              "type": "uint256"
            },
            {
              "internalType": "WeiPrice",
              "name": "nativeCurrencyPrice",
              "type": "uint256"
            },
            {
              "internalType": "bytes32",
              "name": "targetChainAddress",
              "type": "bytes32"
            },
            {
              "internalType": "Wei",
              "name": "maximumTotalBudget",
              "type": "uint256"
            }
          ],
          "internalType": "struct DeliveryProviderStructs.Update[]",
          "name": "updates",
          "type": "tuple[]"
        },
        {
          "components": [
            {
              "internalType": "bool",
              "name": "updateWormholeRelayer",
              "type": "bool"
            },
            {
              "internalType": "bool",
              "name": "updateRewardAddress",
              "type": "bool"
            },
            {
              "internalType": "address payable",
              "name": "coreRelayer",
              "type": "address"
            },
            {
              "internalType": "address payable",
              "name": "rewardAddress",
              "type": "address"
            }
          ],
          "internalType": "struct DeliveryProviderStructs.CoreConfig",
          "name": "coreConfig",
          "type": "tuple"
        }
      ],
      "name": "updateConfig",
      "outputs": [],
      "stateMutability": "nonpayable",
      "type": "function"
    },
    {
      "inputs": [
        {
          "internalType": "uint16",
          "name": "chainId",
          "type": "uint16"
        },
        {
          "internalType": "Gas",
          "name": "newGasOverhead",
          "type": "uint256"
        }
      ],
      "name": "updateDeliverGasOverhead",
      "outputs": [],
      "stateMutability": "nonpayable",
      "type": "function"
    },
    {
      "inputs": [
        {
          "components": [
            {
              "internalType": "uint16",
              "name": "chainId",
              "type": "uint16"
            },
            {
              "internalType": "Gas",
              "name": "newGasOverhead",
              "type": "uint256"
            }
          ],
          "internalType": "struct DeliveryProviderStructs.DeliverGasOverheadUpdate[]",
          "name": "overheadUpdates",
          "type": "tuple[]"
        }
      ],
      "name": "updateDeliverGasOverheads",
      "outputs": [],
      "stateMutability": "nonpayable",
      "type": "function"
    },
    {
      "inputs": [
        {
          "internalType": "uint16",
          "name": "targetChain",
          "type": "uint16"
        },
        {
          "internalType": "Wei",
          "name": "maximumTotalBudget",
          "type": "uint256"
        }
      ],
      "name": "updateMaximumBudget",
      "outputs": [],
      "stateMutability": "nonpayable",
      "type": "function"
    },
    {
      "inputs": [
        {
          "components": [
            {
              "internalType": "uint16",
              "name": "chainId",
              "type": "uint16"
            },
            {
              "internalType": "Wei",
              "name": "maximumTotalBudget",
              "type": "uint256"
            }
          ],
          "internalType": "struct DeliveryProviderStructs.MaximumBudgetUpdate[]",
          "name": "updates",
          "type": "tuple[]"
        }
      ],
      "name": "updateMaximumBudgets",
      "outputs": [],
      "stateMutability": "nonpayable",
      "type": "function"
    },
    {
      "inputs": [
        {
          "internalType": "uint16",
          "name": "updateChainId",
          "type": "uint16"
        },
        {
          "internalType": "GasPrice",
          "name": "updateGasPrice",
          "type": "uint256"
        },
        {
          "internalType": "WeiPrice",
          "name": "updateNativeCurrencyPrice",
          "type": "uint256"
        }
      ],
      "name": "updatePrice",
      "outputs": [],
      "stateMutability": "nonpayable",
      "type": "function"
    },
    {
      "inputs": [
        {
          "components": [
            {
              "internalType": "uint16",
              "name": "chainId",
              "type": "uint16"
            },
            {
              "internalType": "GasPrice",
              "name": "gasPrice",
              "type": "uint256"
            },
            {
              "internalType": "WeiPrice",
              "name": "nativeCurrencyPrice",
              "type": "uint256"
            }
          ],
          "internalType": "struct DeliveryProviderStructs.UpdatePrice[]",
          "name": "updates",
          "type": "tuple[]"
        }
      ],
      "name": "updatePrices",
      "outputs": [],
      "stateMutability": "nonpayable",
      "type": "function"
    },
    {
      "inputs": [
        {
          "internalType": "address payable",
          "name": "newAddress",
          "type": "address"
        }
      ],
      "name": "updateRewardAddress",
      "outputs": [],
      "stateMutability": "nonpayable",
      "type": "function"
    },
    {
      "inputs": [
        {
          "internalType": "uint16",
          "name": "targetChain",
          "type": "uint16"
        },
        {
          "internalType": "bool",
          "name": "isSupported",
          "type": "bool"
        }
      ],
      "name": "updateSupportedChain",
      "outputs": [],
      "stateMutability": "nonpayable",
      "type": "function"
    },
    {
      "inputs": [
        {
          "components": [
            {
              "internalType": "uint16",
              "name": "chainId",
              "type": "uint16"
            },
            {
              "internalType": "bool",
              "name": "isSupported",
              "type": "bool"
            }
          ],
          "internalType": "struct DeliveryProviderStructs.SupportedChainUpdate[]",
          "name": "updates",
          "type": "tuple[]"
        }
      ],
      "name": "updateSupportedChains",
      "outputs": [],
      "stateMutability": "nonpayable",
      "type": "function"
    },
    {
      "inputs": [
        {
          "internalType": "uint16",
          "name": "targetChain",
          "type": "uint16"
        },
        {
          "internalType": "bytes32",
          "name": "newAddress",
          "type": "bytes32"
        }
      ],
      "name": "updateTargetChainAddress",
      "outputs": [],
      "stateMutability": "nonpayable",
      "type": "function"
    },
    {
      "inputs": [
        {
          "components": [
            {
              "internalType": "uint16",
              "name": "chainId",
              "type": "uint16"
            },
            {
              "internalType": "bytes32",
              "name": "targetChainAddress",
              "type": "bytes32"
            }
          ],
          "internalType": "struct DeliveryProviderStructs.TargetChainUpdate[]",
          "name": "updates",
          "type": "tuple[]"
        }
      ],
      "name": "updateTargetChainAddresses",
      "outputs": [],
      "stateMutability": "nonpayable",
      "type": "function"
    },
    {
      "inputs": [
        {
          "internalType": "address payable",
          "name": "newAddress",
          "type": "address"
        }
      ],
      "name": "updateWormholeRelayer",
      "outputs": [],
      "stateMutability": "nonpayable",
      "type": "function"
    },
    {
      "inputs": [
        {
          "internalType": "uint16",
          "name": "deliveryProviderChainId",
          "type": "uint16"
        },
        {
          "internalType": "address",
          "name": "newImplementation",
          "type": "address"
        }
      ],
      "name": "upgrade",
      "outputs": [],
      "stateMutability": "nonpayable",
      "type": "function"
    },
    {
      "inputs": [],
      "name": "wormholeMessageFee",
      "outputs": [
        {
          "internalType": "Wei",
          "name": "",
          "type": "uint256"
        }
      ],
      "stateMutability": "view",
      "type": "function"
    }
  ],
  "bytecode": {
    "object": "0x60a06040523480156200001157600080fd5b50604051620025fe380380620025fe833981016040819052620000349162000046565b6001600160a01b031660805262000078565b6000602082840312156200005957600080fd5b81516001600160a01b03811681146200007157600080fd5b9392505050565b60805161256a62000094600039600061129a015261256a6000f3fe608060405234801561001057600080fd5b506004361061023d5760003560e01c80638cf57cb91161013b578063bb7c0a63116100b8578063ddf049191161007c578063ddf04919146105d4578063e30c3978146105e7578063e8f62d41146105f8578063e8fec1ce1461060b578063fa79380f1461061c57600080fd5b8063bb7c0a631461052b578063bf9321fc1461057a578063d60b347f14610582578063d9f88e14146105ae578063dd36889f146105c157600080fd5b80639a8a0592116100ff5780639a8a0592146104bb578063a31bcc50146104d1578063b51a5f7b146104e4578063b57866d9146104f7578063b9e75e661461050a57600080fd5b80638cf57cb9146104465780638da5cb5b1461046b578063944dd5a21461048257806394cc743d14610495578063973ef215146104a857600080fd5b80633a823154116101c9578063562817e11161018d578063562817e1146103d25780635b5bfc1e146103e5578063646e50481461040d5780636631703b146104205780636b13b5041461043357600080fd5b80633a8231541461033d5780633d77cbfd146103505780633e48e773146103635780634713de7a1461038757806349cdb88c146103ae57600080fd5b806328f41de31161021057806328f41de3146102855780633171aaec146102c157806332f3e784146102f35780633522be7d146103065780633978748a1461031957600080fd5b8063038c0b661461024257806303fed6a51461024c578063111335c51461025f57806314de5ced14610272575b600080fd5b61024a610624565b005b61024a61025a366004611acd565b6106db565b61024a61026d366004611b8e565b610758565b61024a610280366004611b8e565b610798565b6102ac610293366004611bb8565b61ffff1660009081526004602052604090205460ff1690565b60405190151581526020015b60405180910390f35b6102e56102cf366004611bb8565b61ffff1660009081526008602052604090205490565b6040519081526020016102b8565b6102e5610301366004611b8e565b6107d4565b61024a610314366004611be8565b6107f6565b6102e5610327366004611bb8565b61ffff1660009081526005602052604090205490565b61024a61034b366004611c1f565b610986565b6102e561035e366004611bb8565b6109c3565b6102e5610371366004611bb8565b61ffff1660009081526007602052604090205490565b6102e5610395366004611bb8565b61ffff1660009081526006602052604090206001015490565b6102e56103bc366004611bb8565b61ffff1660009081526006602052604090205490565b61024a6103e0366004611ce6565b6109dc565b6103f86103f3366004611c1f565b610b24565b604080519283526020830191909152016102b8565b61024a61041b366004611e7c565b610c18565b61024a61042e366004611eaf565b610cab565b61024a610441366004611b8e565b610d28565b600a546001600160a01b03165b6040516001600160a01b0390911681526020016102b8565b6000546201000090046001600160a01b0316610453565b61024a610490366004611f73565b610d64565b61024a6104a3366004611be8565b610da2565b61024a6104b6366004611f97565b610e2c565b60005460405161ffff90911681526020016102b8565b6102e56104df366004611bb8565b610e69565b61024a6104f2366004611f73565b610f05565b61024a610505366004611fda565b610f40565b61051d61051836600461208b565b610fb8565b6040516102b8929190612189565b61055f610539366004611bb8565b61ffff908116600090815260096020526040902054808216926201000090910490911690565b6040805161ffff9384168152929091166020830152016102b8565b610453611080565b6102ac610590366004611f73565b6001600160a01b031660009081526003602052604090205460ff1690565b61024a6105bc3660046121a2565b611099565b61024a6105cf36600461225b565b611111565b61024a6105e2366004612321565b61118e565b6001546001600160a01b0316610453565b6102e5610606366004611bb8565b611206565b6002546001600160a01b0316610453565b6102e5611296565b60006106386001546001600160a01b031690565b9050336001600160a01b0382161461066357604051630106037360e21b815260040160405180910390fd5b600080546001600160a01b038381166201000090810262010000600160b01b0319841617845590910416906106979061131a565b816001600160a01b0316816001600160a01b03167f0d18b5fd22306e373229b9439188228edca81207d1667f604daf6cef8aa3ee6760405160405180910390a35050565b6000546001600160a01b036201000090910416331461070d5760405163c0e22f3d60e01b815260040160405180910390fd5b805160005b8181101561075357600083828151811061072e5761072e6123d2565b6020026020010151905061074a8160000151826020015161133c565b50600101610712565b505050565b6000546001600160a01b036201000090910416331461078a5760405163c0e22f3d60e01b815260040160405180910390fd5b610794828261139d565b5050565b6000546001600160a01b03620100009091041633146107ca5760405163c0e22f3d60e01b815260040160405180910390fd5b61079482826113ed565b60006107ed6107e660005461ffff1690565b848461142f565b90505b92915050565b6000546001600160a01b03620100009091041633146108285760405163c0e22f3d60e01b815260040160405180910390fd5b60005461ffff838116911614610850576040516217e1ef60ea1b815260040160405180910390fd5b60006108837f360894a13ba1a3210667c828492db98dca3e2076cc3735a920a3ca505d382bbc546001600160a01b031690565b905061088e8261149c565b60408051600481526024810182526020810180516001600160e01b031663204a7f0760e21b179052905160009182916001600160a01b038616916108d1916123e8565b600060405180830381855af49150503d806000811461090c576040519150601f19603f3d011682016040523d82523d6000602084013e610911565b606091505b50915091508161093f57806040516385f11c8360e01b81526004016109369190612404565b60405180910390fd5b836001600160a01b0316836001600160a01b03167f2e4cc16c100f0b55e2df82ab0b1a7e294aa9cbd01b48fbaf622683fbc0507a4960405160405180910390a35050505050565b6000546001600160a01b03620100009091041633146109b85760405163c0e22f3d60e01b815260040160405180910390fd5b6107538383836114dc565b61ffff81166000908152600560205260408120546107f0565b6000546001600160a01b0362010000909104163314610a0e5760405163c0e22f3d60e01b815260040160405180910390fd5b815160005b81811015610af8576000848281518110610a2f57610a2f6123d2565b60200260200101519050806040015115610a5c57610a5c8160e001518261016001518361018001516114dc565b806060015115610a7957610a798160e00151826101a001516113ed565b806020015115610a9657610a968160e0015182610140015161139d565b806080015115610ab357610ab38160e00151826101c0015161133c565b805115610ad357610ad38160e0015182610100015183610120015161154e565b8060a0015115610aef57610aef8160e001518260c00151610c4a565b50600101610a13565b50815115610b0d57610b0d82604001516115c6565b816020015115610753576107538260600151611620565b61ffff83166000908152600660205260408120546000610b448583611672565b90506000610b6c610b5488610e69565b610b67610b608a611206565b8990611672565b611681565b90506000610b7a888761168d565b9050610ba0610b9d610b95610b8f8587611700565b84611681565b610b67611296565b90565b9450610bc8610baf8785611681565b61ffff8a16600090815260086020526040902054101590565b610c0d5760405162461bcd60e51b8152602060048201526016602482015275115e18d959591cc81b585e1a5b5d5b48189d5919d95d60521b6044820152606401610936565b505050935093915050565b6000546001600160a01b0362010000909104163314610c4a5760405163c0e22f3d60e01b815260040160405180910390fd5b61ffff82166000908152600460205260409020805460ff19168215151790556040805161ffff8416815282151560208201527feaa35dfb768f1ccf1313ea7faae95ecba5820bf18c08a3e58cbdf3aaa4259096910160405180910390a15050565b6000546001600160a01b0362010000909104163314610cdd5760405163c0e22f3d60e01b815260040160405180910390fd5b805160005b81811015610753576000838281518110610cfe57610cfe6123d2565b60200260200101519050610d1f8160000151826020015183604001516114dc565b50600101610ce2565b6000546001600160a01b0362010000909104163314610d5a5760405163c0e22f3d60e01b815260040160405180910390fd5b610794828261133c565b6000546001600160a01b0362010000909104163314610d965760405163c0e22f3d60e01b815260040160405180910390fd5b610d9f81611620565b50565b6000546001600160a01b0362010000909104163314610dd45760405163c0e22f3d60e01b815260040160405180910390fd5b60005461ffff838116911614610dfc576040516217e1ef60ea1b815260040160405180910390fd5b6001600160a01b038116610e235760405163867915ab60e01b815260040160405180910390fd5b6107948161131a565b6000546001600160a01b0362010000909104163314610e5e5760405163c0e22f3d60e01b815260040160405180910390fd5b61075383838361154e565b61ffff811660009081526007602090815260408083205460069092528220548290610e95908390611672565b90506000610eb08583610eab60005461ffff1690565b611715565b90506fffffffffffffffffffffffffffffffff811115610efd5760405162461bcd60e51b81526020600482015260086024820152674f766572666c6f7760c01b6044820152606401610936565b949350505050565b6000546001600160a01b0362010000909104163314610f375760405163c0e22f3d60e01b815260040160405180910390fd5b610d9f816115c6565b6000546001600160a01b0362010000909104163314610f725760405163c0e22f3d60e01b815260040160405180910390fd5b805160005b81811015610753576000838281518110610f9357610f936123d2565b60200260200101519050610faf816000015182602001516113ed565b50600101610f77565b600060606000610fc78461174a565b90506000818015610fda57610fda612417565b0361104a576000610fea85611760565b90506000610ffd88836000015189610b24565b604080518082018252945180865260209586018390528151600096810196909652858201526060808601929092528051808603909201825260809094019093529450909250611078915050565b80801561105957611059612417565b6040516301959ad760e71b815260ff9091166004820152602401610936565b935093915050565b6000611094600a546001600160a01b031690565b905090565b6000546001600160a01b03620100009091041633146110cb5760405163c0e22f3d60e01b815260040160405180910390fd5b805160005b818110156107535760008382815181106110ec576110ec6123d2565b6020026020010151905061110881600001518260200151610c4a565b506001016110d0565b6000546001600160a01b03620100009091041633146111435760405163c0e22f3d60e01b815260040160405180910390fd5b805160005b81811015610753576000838281518110611164576111646123d2565b6020026020010151905061118581600001518260200151836040015161154e565b50600101611148565b6000546001600160a01b03620100009091041633146111c05760405163c0e22f3d60e01b815260040160405180910390fd5b805160005b818110156107535760008382815181106111e1576111e16123d2565b602002602001015190506111fd8160000151826020015161139d565b506001016111c5565b60008061123b8361122f61122a8661ffff1660009081526006602052604090205490565b6117b7565b60005461ffff16611715565b90506affffffffffffffffffffff8111156112835760405162461bcd60e51b81526020600482015260086024820152674f766572666c6f7760c01b6044820152606401610936565b6affffffffffffffffffffff1692915050565b60007f00000000000000000000000000000000000000000000000000000000000000006001600160a01b0316631a90a2196040518163ffffffff1660e01b8152600401602060405180830381865afa1580156112f6573d6000803e3d6000fd5b505050506040513d601f19601f82011682018060405250810190611094919061242d565b600180546001600160a01b0319166001600160a01b0392909216919091179055565b6001600160c01b038111156113865760405162461bcd60e51b815260206004820152601060248201526f616d6f756e7420746f6f206c6172676560801b6044820152606401610936565b61ffff909116600090815260086020526040902055565b61ffff82166000908152600760205260409020546113bb83836117bf565b604051829082907fa73b3e840df75fb07563bcc4e73041b76e761005717b548d420aee0dbfb82e8890600090a3505050565b61ffff8216600081815260056020526040808220849055518392917fca40221dbf955f8619d86581ec5e380ca9ce15f9083a0ab52909d2383d2249f691a35050565b61ffff82811660008181526009602090815260408083205488861684526006909252808320600190810154948452908320015491938181169362010000909204169161149291610b9d9185611484868261245c565b60008a5b949392919061182a565b9695505050505050565b6114a581611884565b6040516001600160a01b038216907fbc7cd75a20ee27fd9adebab32041f755214dbc6bffa90cc0225b39da2e5c2d3b90600090a250565b8261ffff1660000361150157604051631b1be67360e21b815260040160405180910390fd5b8160000361152257604051630657481960e21b815260040160405180910390fd5b8060000361154357604051630f47f0ed60e31b815260040160405180910390fd5b610753838383611929565b61ffff838116600081815260096020908152604091829020805487861663ffffffff19909116811762010000968816968702179091558251938452908301528181019290925290517faed3d5a75b6e523af32a68084c636eb7880958755291bb890cf7c8abc107a556916060908290030190a1505050565b600280546001600160a01b0319166001600160a01b0383161790556040516001600160a01b03821681527f80ba15fb50f5b4a4de303ae58538112279fb2b00af61c4d38126265bae2944da9060200160405180910390a150565b600a80546001600160a01b0319166001600160a01b0383161790556040516001600160a01b038216907f97e1f675f69047e4b663d3b795841c629240f48eb403a6337e5367c4405737e090600090a250565b600081835b6107ed9190612480565b60006107ed8284612497565b61ffff8281166000908152600960205260408120548154919281811692620100009092048116916116f7916116c29116610395565b61ffff87166000908152600660205260409020600101546116ea61ffff80861690871661245c565b61ffff8616600189611488565b95945050505050565b600082821161170f57826107ed565b50919050565b61ffff83811660009081526006602052604080822060019081015493851683529082208101549192610efd928692808061182a565b6000818060200190518101906107f091906124aa565b60408051602081019091526000815260008280602001905181019061178591906124cb565b8352905060ff81161561170f57604051631d4a282160e21b815260ff8216600482015260006024820152604401610936565b6000816107f0565b63ffffffff8111156118135760405162461bcd60e51b815260206004820152601c60248201527f64656c697665724761734f7665726865616420746f6f206c61726765000000006044820152606401610936565b61ffff909116600090815260076020526040902055565b6000806118508563ffffffff1661184a898b61199d90919063ffffffff16565b906119a9565b905060006118678763ffffffff808816906119a916565b905060006118768383876119b2565b9a9950505050505050505050565b803b6118e85760405162461bcd60e51b815260206004820152602d60248201527f455243313936373a206e657720696d706c656d656e746174696f6e206973206e60448201526c1bdd08184818dbdb9d1c9858dd609a1b6064820152608401610936565b7f360894a13ba1a3210667c828492db98dca3e2076cc3735a920a3ca505d382bbc80546001600160a01b0319166001600160a01b0392909216919091179055565b6001600160401b038211156119805760405162461bcd60e51b815260206004820152601860248201527f676173207072696365206d757374206265203c20325e363400000000000000006044820152606401610936565b61ffff909216600090815260066020526040902090815560010155565b60006107ed8284612480565b60008183611677565b600082826119c15760006119cc565b6119cc6001856124ff565b6119d69086612497565b610efd9190612512565b634e487b7160e01b600052604160045260246000fd5b604080519081016001600160401b0381118282101715611a1857611a186119e0565b60405290565b6040516101e081016001600160401b0381118282101715611a1857611a186119e0565b604051606081016001600160401b0381118282101715611a1857611a186119e0565b604051601f8201601f191681016001600160401b0381118282101715611a8b57611a8b6119e0565b604052919050565b60006001600160401b03821115611aac57611aac6119e0565b5060051b60200190565b803561ffff81168114611ac857600080fd5b919050565b60006020808385031215611ae057600080fd5b82356001600160401b03811115611af657600080fd5b8301601f81018513611b0757600080fd5b8035611b1a611b1582611a93565b611a63565b81815260069190911b82018301908381019087831115611b3957600080fd5b928401925b82841015611b835760408489031215611b575760008081fd5b611b5f6119f6565b611b6885611ab6565b81528486013586820152825260409093019290840190611b3e565b979650505050505050565b60008060408385031215611ba157600080fd5b611baa83611ab6565b946020939093013593505050565b600060208284031215611bca57600080fd5b6107ed82611ab6565b6001600160a01b0381168114610d9f57600080fd5b60008060408385031215611bfb57600080fd5b611c0483611ab6565b91506020830135611c1481611bd3565b809150509250929050565b600080600060608486031215611c3457600080fd5b611c3d84611ab6565b95602085013595506040909401359392505050565b80358015158114611ac857600080fd5b600060808284031215611c7457600080fd5b604051608081018181106001600160401b0382111715611c9657611c966119e0565b604052905080611ca583611c52565b8152611cb360208401611c52565b60208201526040830135611cc681611bd3565b60408201526060830135611cd981611bd3565b6060919091015292915050565b60008060a0808486031215611cfa57600080fd5b83356001600160401b03811115611d1057600080fd5b8401601f81018613611d2157600080fd5b80356020611d31611b1583611a93565b8281526101e0928302840182019282820191908a851115611d5157600080fd5b948301945b84861015611e5e5780868c031215611d6e5760008081fd5b611d76611a1e565b611d7f87611c52565b8152611d8c858801611c52565b858201526040611d9d818901611c52565b908201526060611dae888201611c52565b908201526080611dbf888201611c52565b90820152611dce878901611c52565b8882015260c0611ddf818901611c52565b9082015260e0611df0888201611ab6565b90820152610100611e02888201611ab6565b90820152610120611e14888201611ab6565b908201526101408781013590820152610160808801359082015261018080880135908201526101a080880135908201526101c0808801359082015283529485019491830191611d56565b509650611e6f905088888301611c62565b9450505050509250929050565b60008060408385031215611e8f57600080fd5b611e9883611ab6565b9150611ea660208401611c52565b90509250929050565b60006020808385031215611ec257600080fd5b82356001600160401b03811115611ed857600080fd5b8301601f81018513611ee957600080fd5b8035611ef7611b1582611a93565b81815260609182028301840191848201919088841115611f1657600080fd5b938501935b83851015611f675780858a031215611f335760008081fd5b611f3b611a41565b611f4486611ab6565b815285870135878201526040808701359082015283529384019391850191611f1b565b50979650505050505050565b600060208284031215611f8557600080fd5b8135611f9081611bd3565b9392505050565b600080600060608486031215611fac57600080fd5b611fb584611ab6565b9250611fc360208501611ab6565b9150611fd160408501611ab6565b90509250925092565b60006020808385031215611fed57600080fd5b82356001600160401b0381111561200357600080fd5b8301601f8101851361201457600080fd5b8035612022611b1582611a93565b81815260069190911b8201830190838101908783111561204157600080fd5b928401925b82841015611b83576040848903121561205f5760008081fd5b6120676119f6565b61207085611ab6565b81528486013586820152825260409093019290840190612046565b6000806000606084860312156120a057600080fd5b6120a984611ab6565b9250602080850135925060408501356001600160401b03808211156120cd57600080fd5b818701915087601f8301126120e157600080fd5b8135818111156120f3576120f36119e0565b612105601f8201601f19168501611a63565b9150808252888482850101111561211b57600080fd5b80848401858401376000848284010152508093505050509250925092565b60005b8381101561215457818101518382015260200161213c565b50506000910152565b60008151808452612175816020860160208601612139565b601f01601f19169290920160200192915050565b828152604060208201526000610efd604083018461215d565b600060208083850312156121b557600080fd5b82356001600160401b038111156121cb57600080fd5b8301601f810185136121dc57600080fd5b80356121ea611b1582611a93565b81815260069190911b8201830190838101908783111561220957600080fd5b928401925b82841015611b8357604084890312156122275760008081fd5b61222f6119f6565b61223885611ab6565b8152612245868601611c52565b818701528252604093909301929084019061220e565b6000602080838503121561226e57600080fd5b82356001600160401b0381111561228457600080fd5b8301601f8101851361229557600080fd5b80356122a3611b1582611a93565b818152606091820283018401918482019190888411156122c257600080fd5b938501935b83851015611f675780858a0312156122df5760008081fd5b6122e7611a41565b6122f086611ab6565b81526122fd878701611ab6565b87820152604061230e818801611ab6565b90820152835293840193918501916122c7565b6000602080838503121561233457600080fd5b82356001600160401b0381111561234a57600080fd5b8301601f8101851361235b57600080fd5b8035612369611b1582611a93565b81815260069190911b8201830190838101908783111561238857600080fd5b928401925b82841015611b8357604084890312156123a65760008081fd5b6123ae6119f6565b6123b785611ab6565b8152848601358682015282526040909301929084019061238d565b634e487b7160e01b600052603260045260246000fd5b600082516123fa818460208701612139565b9190910192915050565b6020815260006107ed602083018461215d565b634e487b7160e01b600052602160045260246000fd5b60006020828403121561243f57600080fd5b5051919050565b634e487b7160e01b600052601160045260246000fd5b63ffffffff81811683821601908082111561247957612479612446565b5092915050565b80820281158282048414176107f0576107f0612446565b808201808211156107f0576107f0612446565b6000602082840312156124bc57600080fd5b815160018110611f9057600080fd5b600080604083850312156124de57600080fd5b825160ff811681146124ef57600080fd5b6020939093015192949293505050565b818103818111156107f0576107f0612446565b60008261252f57634e487b7160e01b600052601260045260246000fd5b50049056fea264697066735822122098186c3255d4185e267705a352180b7e3b94f730f857961d4b3f770f1eadafad64736f6c63430008130033",
    "linkReferences": {}
  },
  "methodIdentifiers": {
    "assetConversionBuffer(uint16)": "bb7c0a63",
    "chainId()": "9a8a0592",
    "confirmOwnershipTransferRequest()": "038c0b66",
    "coreRelayer()": "e8fec1ce",
    "deliverGasOverhead(uint16)": "3e48e773",
    "gasPrice(uint16)": "49cdb88c",
    "getRewardAddress()": "bf9321fc",
    "getTargetChainAddress(uint16)": "3d77cbfd",
    "isChainSupported(uint16)": "28f41de3",
    "isInitialized(address)": "d60b347f",
    "maximumBudget(uint16)": "3171aaec",
    "nativeCurrencyPrice(uint16)": "4713de7a",
    "owner()": "8da5cb5b",
    "pendingOwner()": "e30c3978",
    "quoteAssetConversion(uint16,uint256)": "32f3e784",
    "quoteDeliveryOverhead(uint16)": "a31bcc50",
    "quoteDeliveryPrice(uint16,uint256,bytes)": "b9e75e66",
    "quoteEvmDeliveryPrice(uint16,uint256,uint256)": "5b5bfc1e",
    "quoteGasPrice(uint16)": "e8f62d41",
    "rewardAddress()": "8cf57cb9",
    "submitOwnershipTransferRequest(uint16,address)": "94cc743d",
    "targetChainAddress(uint16)": "3978748a",
    "updateAssetConversionBuffer(uint16,uint16,uint16)": "973ef215",
    "updateAssetConversionBuffers((uint16,uint16,uint16)[])": "dd36889f",
    "updateConfig((bool,bool,bool,bool,bool,bool,bool,uint16,uint16,uint16,uint256,uint256,uint256,bytes32,uint256)[],(bool,bool,address,address))": "562817e1",
    "updateDeliverGasOverhead(uint16,uint256)": "111335c5",
    "updateDeliverGasOverheads((uint16,uint256)[])": "ddf04919",
    "updateMaximumBudget(uint16,uint256)": "6b13b504",
    "updateMaximumBudgets((uint16,uint256)[])": "03fed6a5",
    "updatePrice(uint16,uint256,uint256)": "3a823154",
    "updatePrices((uint16,uint256,uint256)[])": "6631703b",
    "updateRewardAddress(address)": "944dd5a2",
    "updateSupportedChain(uint16,bool)": "646e5048",
    "updateSupportedChains((uint16,bool)[])": "d9f88e14",
    "updateTargetChainAddress(uint16,bytes32)": "14de5ced",
    "updateTargetChainAddresses((uint16,bytes32)[])": "b57866d9",
    "updateWormholeRelayer(address)": "b51a5f7b",
    "upgrade(uint16,address)": "3522be7d",
    "wormholeMessageFee()": "fa79380f"
  },
  "id": 65
}